:020000040800F2
:100000005808002065020008BD16000835150008D4
:10001000B91600086D030008191900080000000057
:10002000000000000000000000000000770200084F
:10003000710300080000000011020008E916000822
:100040007F0200087F0200087F0200087F0200088C
:100050007F0200087F0200087F0200087F0200087C
:100060007F0200087F0200087F0200087F0200086C
:100070007F0200087F0200087F0200087F0200085C
:100080007F0200087F0200087F0200087F0200084C
:100090007F0200087F0200087F0200087F0200083C
:1000A0007F0200087F0200087F0200087F0200082C
:1000B0007F0200087F0200087F0200087F0200081C
:1000C0007F0200087F0200087F0200087F0200080C
:1000D0007F0200087F0200087F0200087F020008FC
:1000E0007F0200087F0200087F0200087F020008EC
:1000F0007F0200087F0200087F0200087F020008DC
:100100007F0200087F0200087F0200087F020008CB
:100110007F0200087F0200087F02000861170008C4
:100120007F0200087F0200087F0200087F020008AB
:1001300000F002F800F03AF80AA090E8000C8244BF
:100140008344AAF10107DA4501D100F02FF8AFF29C
:10015000090EBAE80F0013F0010F18BFFB1A43F0A5
:1001600001031847C01A0000E01A0000103A24BF2B
:1001700078C878C1FAD8520724BF30C830C144BF0C
:1001800004680C607047000000230024002500264E
:10019000103A28BF78C1FBD8520728BF30C148BFEA
:1001A0000B6070471FB51FBD10B510BD00F0ABF858
:1001B0001146FFF7F7FF01F0CDFB00F0C9F803B4DB
:1001C000FFF7F2FF03BC00F097F80000224B19681C
:1001D0000868B0E8F00F80F30988BFF36F8F4FF025
:1001E000000080F311884EF00D0E704700000000F3
:1001F00006480068006880F3088862B661B6BFF3FD
:100200004F8FBFF36F8F00DF00BF00BF08ED00E02E
:10021000EFF30980BFF36F8F0F4B1A6820E9F00FDF
:10022000106008B54FF0BF0080F31188BFF34F8F07
:10023000BFF36F8F01F0B2FB4FF0000080F3118825
:10024000BDE8084019680868B0E8F00F80F3098835
:10025000BFF36F8F704700BF18000020EFF30580D9
:10026000704700000948804709480047FEE7FEE75D
:10027000FEE7FEE7FEE7FEE7FEE7FEE7FEE7FEE756
:1002800004480549054A064B704700005F170008FF
:1002900031010008580200205808002058040020AE
:1002A000580400204FF0000200B5134694469646CD
:1002B000203922BFA0E80C50A0E80C50B1F1200179
:1002C000BFF4F7AF090728BFA0E80C5048BF0CC027
:1002D0005DF804EB890028BF40F8042B08BF704785
:1002E00048BF20F8022B11F0804F18BF00F8012BF7
:1002F000704770477047704701491820ABBEFEE752
:10030000260002007047754600F02CF8AE46050046
:100310006946534620F00700854618B020B5FFF720
:10032000AFFFBDE820404FF000064FF000074FF050
:1003300000084FF0000B21F00701AC46ACE8C00903
:10034000ACE8C009ACE8C009ACE8C0098D4670470C
:1003500010B50446AFF300802046BDE81040FFF71B
:100360002EBF000000487047F801002000BFFEE7E4
:10037000704772B600BFFEE770B50446B3F5804F14
:1003800013D1D1E9000540EA05108D6840EA052047
:100390008D6928438D8940EA054054F82250064E65
:1003A0003540284344F8220003E06FF0704044F8E1
:1003B0002200002070BD00000000F0CF70B50246A2
:1003C000086852F8200020F001000E6842F826006C
:1003D0008868082801D1402300E0002348681843BA
:1003E0008E683043CE6830430E6930434E693043E7
:1003F000CE6930430E6A30434E6A30438E6A3043D2
:10040000CE6A30430E6B40EA060488690443486BA9
:100410000443074D45F4806545F4E025086852F82B
:100420002000A84320430E6842F82600002070BD3B
:100430007FFB080010B50346D1E9000440EA041030
:100440008C6840EA04208C8940EA0444088A401EF3
:1004500044EA0054087D801E44EA00608C69204311
:10046000541C43F82400002010BD000000B585B0E6
:10047000002001900290039004901748006808B192
:1004800005B000BD01201449086000BF1348406951
:1004900040F48070114948610846406900F480705A
:1004A000009000BF00BF4FF68070019002200290C4
:1004B0000320049001A90A4800F016F84CF6B37026
:1004C0000190022002900320049001A9054800F049
:1004D0000BF800BFD4E7000000000020001002402D
:1004E00000180140001401402DE9F847024600239E
:1004F0009C467BE14FF0010808FA03F4D1F8008034
:1005000008EA0400A0427DD1DFF8F4A2D1F804800B
:10051000A8EB0A09D0453AD014DCB8F1030F50D04B
:1005200009DCB8F1000F31D0B8F1010F1CD0B8F1DF
:10053000020F49D120E0B8F1110F18D0B8F1120F15
:1005400042D11EE0B9F5881F25D006DCB9F5803F01
:1005500020D0B9F5801F37D11AE0B9F5001F18D0A7
:10056000B9F5041F30D117E0D1F80CC02DE0D1F857
:100570000C8008F1040C28E0D1F80C8008F1080C7C
:1005800023E0D1F80C8008F10C0C1EE000BF00BF86
:1005900000BF00BF00BF00BFD1F80880B8F1000F56
:1005A00002D14FF0040C0BE0D1F80880B8F1010F34
:1005B00003D14FF0080C146102E04FF0080C5461B5
:1005C00003E04FF0000C00E000BF00BFFF2801D89F
:1005D000904601E002F104084646FF2802D84FEA9F
:1005E000830803E0A3F108084FEA88084746D6F8D5
:1005F00000804FF00F0909FA07F928EA09080CFAF8
:1006000007F900E07AE048EA0908C6F80080D1F866
:10061000048008F08058B8F1805F6FD100BFDFF828
:10062000E481D8F8188048F00108DFF8D891C9F8BB
:100630001880C846D8F8188008F00108CDF8008066
:1006400000BF00BF4FEAB9384FEA930958F8295064
:100650004FEA83784FEA18794FF00F0808FA09F843
:1006600025EA0805DFF8A081424502D14FF00008D5
:1006700024E0DFF89881424502D14FF001081DE0E7
:10068000DFF88C81424502D14FF0020816E0DFF816
:100690008481424502D14FF003080FE0DFF87881F2
:1006A000424502D14FF0040808E0DFF8708142456E
:1006B00002D14FF0050801E04FF006084FEA8379B8
:1006C0004FEA197908FA09F848EA0505DFF8508178
:1006D0004FEA930948F82950D1F8048008F48018AB
:1006E000B8F5801F0BD1DFF83C81D8F8008048EACC
:1006F0000008DFF83091C9F800800AE075E0DFF803
:100700002481D8F8008028EA0008DFF81891C9F899
:100710000080D1F8048008F40018B8F5001F0ED14D
:10072000DFF8008108F10408D8F8008048EA0008E2
:10073000DFF8F09009F10409C9F800800DE0DFF856
:10074000E48008F10408D8F8008028EA0008DFF8FF
:10075000D49009F10409C9F80080D1F8048008F4A4
:100760000038B8F5003F0ED1DFF8B880A8F10408D2
:10077000D8F8008048EA0008DFF8A890A9F1040939
:10078000C9F800800DE0DFF89C80A8F10408D8F8D3
:10079000008028EA0008DFF88C90A9F10409C9F864
:1007A0000080D1F8048008F48038B8F5803F0ED17D
:1007B000DFF87080A8F10808D8F8008048EA00083F
:1007C000DFF86090A9F10809C9F800800DE0DFF8B2
:1007D0005480A8F10808D8F8008028EA0008DFF85B
:1007E0004490A9F10809C9F800805B1CD1F8008089
:1007F00028FA03F8B8F1000F7FF47CAEBDE8F88763
:10080000000011100010024000080140000C0140DF
:10081000001001400014014000180140001C01407C
:1008200008000140080401400AB1016101E00B0425
:10083000036170470148006870470000080000200D
:100840000348006803490978084401490860704773
:10085000080000201000002010B50848006840F093
:10086000100006490860032000F0DCF8012000F0C9
:1008700007F800F05FF8002010BD000000200240E3
:100880002DE9F04188B004460027B846002600BF95
:100890002348C06940F020002149C8610846C0696A
:1008A00000F02000019000BF00BF02A903A800F0E3
:1008B00093F9069F1FB900F0B7F9054602E000F072
:1008C000B3F945001748B5FBF0F0A0F10108164850
:1008D0001649086040F2E7311448C160C0F804804E
:1008E000002101618160816100F062FC064696B9D9
:1008F0000E4800F091FC06466EB9372000F044F82F
:10090000102C07D200222146372000F04DF808486D
:10091000046000E00126304608B0BDE8F081000028
:100920000010024040420F0000140040E800002088
:100930000C00002008B500BF1148806940F001009C
:100940000F4988610846806900F00100009000BFEF
:1009500000BF00BF0846C06940F08050C86108462B
:10096000C06900F08050009000BF00BF00BF054983
:10097000486820F0E06040F00070486000BF08BDAB
:10098000001002400000014001460846002809DB33
:1009900000F01F0301229A4043099B0003F1E0236A
:1009A000C3F8002100BF70472DE9F05F80460D4677
:1009B0001646002700F0B2FF074639462A4633465E
:1009C00001F00700C0F1070ABAF1040F02D94FF095
:1009D000040A01E0C0F1070AD14600F1040ABAF1A5
:1009E000070F02D24FF0000A01E0A0F1030AD4463B
:1009F0004FF0010A0AFA09FAAAF1010A0AEA020A00
:100A00000AFA0CFA4FF0010B0BFA0CFBABF1010BDD
:100A10000BEA030B4AEA0B042146404600F086FF2E
:100A2000BDE8F09F00BF00F00702064B19684FF6C3
:100A3000FF031940044B0B4343EA0221014B1960A9
:100A400000BF70470CED00E00000FA0570B50446E9
:100A50000D460CB9012070BD5A48006800F007002F
:100A6000A8420ED25748006820F007002843554995
:100A700008600846006800F00700A84201D0012085
:100A8000E9E7207800F0020002281DD1207800F06C
:100A90000400042805D14C48406840F4E0604A490D
:100AA0004860207800F00800082805D146484068D2
:100AB00040F46050444948604348406820F0F000EA
:100AC000A168084340494860207800F0010078B3ED
:100AD0006068012806D13C48006800F4003090B9F5
:100AE0000120B8E76068022806D13748006800F0A6
:100AF000007040B90120AEE73348006800F0020002
:100B000008B90120A7E73048406820F00300616879
:100B100008432D494860FFF78DFE064609E0FFF7C0
:100B200089FE801B41F28831884202D9032092E776
:100B300007E02548406800F00C006168B0EB810FC9
:100B4000EDD12048006800F00700A8420ED91D48EA
:100B5000006820F0070028431A490860084600682A
:100B600000F00700A84201D0012074E7207800F0CF
:100B70000400042807D11448406820F4E060E168CC
:100B8000084311494860207800F00800082808D17F
:100B90000D48406820F46050216940EAC1000A49CC
:100BA000486000F061F808494968C1F30311074A39
:100BB000515CC8400649086006480068FFF760FEBF
:100BC000002048E700200240001002400A1C0008F4
:100BD000140000200C0000200F2202600D4A526811
:100BE00002F0030242600B4A526802F0F002826097
:100BF000084A526802F4E062C260064A526802F48F
:100C00006052D2080261044A126802F007020A60C8
:100C100070470000001002400020024001480068B8
:100C2000704700001400002000B5FFF7F7FF0449EB
:100C30004968C1F30221034A515CC84000BD00006D
:100C4000001002401A1C000800B5FFF7E7FF044936
:100C50004968C1F3C221034A515CC84000BD00008D
:100C6000001002401A1C000870B500210022002468
:100C700000230020134D696801F00C05F5B1042D27
:100C800002D0082D19D101E00F4819E00F4DC1F332
:100C90008346AB5D01F4803555B10A4D6D68C5F3EF
:100CA00040450B4E725D084D5D43B5FBF2F402E02A
:100CB000084D03FB05F4204602E000BF024800BFD8
:100CC00000BF70BD0010024000127A00F81B00083F
:100CD000081C000800093D00F8B504460CB90120C5
:100CE000F8BD207800F00100002878D0F84840686E
:100CF00000F00C0004280CD0F548406800F00C000F
:100D0000082811D1F248406800F48030B0F5803FE7
:100D10000AD1EF48006800F4003000285FD0606816
:100D200000285CD10120DBE700BF6068B0F5803FA0
:100D300006D1E748006840F48030E549086028E0C3
:100D4000606858B9E248006820F48030E0490860E3
:100D50000846006820F4802008601AE06068B0F55A
:100D6000A02F0BD1DA48006840F48020D8490860F1
:100D70000846006840F4803008600AE0D448006803
:100D800020F48030D24908600846006820F48020B2
:100D9000086000BF606888B1FFF74CFD054606E0BB
:100DA000FFF748FD401B642801D9032098E7C84895
:100DB000006800F400300028F2D010E0FFF73AFDA0
:100DC000054606E0FFF736FD401B642801D90320E5
:100DD00086E7BF48006800F400300028F2D1207890
:100DE00000F00200022857D1B948406800F00C001A
:100DF00050B1B748406800F00C00082818D1B4483A
:100E0000406800F4803098B9B148006800F00200F2
:100E100020B12069012801D0012061E7AC480068B9
:100E200020F0F800616940EAC100A949086033E098
:100E30002069E8B10120A7490860FFF7FBFC0546DF
:100E400006E0FFF7F7FC401B022801D9032047E723
:100E50009F48006800F002000028F2D09C4800681B
:100E600020F0F800616940EAC1009949086013E088
:100E7000002098490860FFF7DDFC054606E0FFF713
:100E8000D9FC401B022801D9032029E790480068BB
:100E900000F002000028F2D1207800F008000828B5
:100EA0002DD1A069B8B101208B490860FFF7C2FCC1
:100EB000054606E0FFF7BEFC401B022801D90320CF
:100EC0000EE78348406A00F002000028F2D00120BB
:100ED00000F0F6FB13E000207F490860FFF7AAFC52
:100EE000054606E0FFF7A6FC401B022801D90320B7
:100EF000F6E67748406A00F002000028F2D1207838
:100F000000F00400042873D100277148C06900F084
:100F1000805070B900BF6E48C06940F080506C4985
:100F2000C8610846C06900F08050009000BF00BF53
:100F300001276A48006800F48070B0B9674800680B
:100F400040F4807065490860FFF774FC054606E0D0
:100F5000FFF770FC401B642801D90320C0E65F48FE
:100F6000006800F480700028F2D000BFE06801281B
:100F700006D15748006A40F001005549086227E051
:100F8000E06858B95248006A20F0010050490862F0
:100F90000846006A20F00400086219E0E0680528AD
:100FA0000BD14B48006A40F00400494908620846EA
:100FB000006A40F0010008620AE04548006A20F03B
:100FC0000100434908620846006A20F004000862F4
:100FD00000BFE068A0B1FFF72DFC054609E0FFF770
:100FE00029FC401B41F28831884202D9032077E670
:100FF00022E03748006A00F002000028EFD012E03B
:10100000FFF718FC054608E0FFF714FC401B41F20F
:101010008831884201D9032062E62D48006A00F039
:1010200002000028F0D1012F05D12948C06920F025
:1010300080502749C86100BFE069C8B324484068B0
:1010400000F00C00082860D0E069022848D1002098
:1010500020490866FFF7EEFB054606E0FFF7EAFBCE
:10106000401B022801D903203AE61948006800F025
:1010700000700028F2D1206AB0F5803F07D11448F3
:10108000406820F40030A168084311494860D4E961
:10109000080108430E49496821F4741108430C49BA
:1010A000486001200B490866FFF7C4FB054607E0CE
:1010B0003DE0FFF7BFFB401B022801D903200FE6EC
:1010C0000348006800F000700028F2D02FE0000014
:1010D0000010024000004242800442420070004082
:1010E000002014490866FFF7A5FB054606E0FFF758
:1010F000A1FB401B022801D90320F1E50E4800683E
:1011000000F000700028F2D111E0E069012800D160
:10111000E6E50948466806F48031206A814204D138
:1011200006F47011606A814201D00120D8E50020E8
:10113000D6E50000000042420010024070B50446AF
:101140000E4615461CB1A069B0F5807F01D1012083
:1011500070BD94F8410028B9002084F84000204672
:1011600000F01FF804F108012068FFF727F9314665
:10117000A2682068FFF75EF92946236BD4E90102D3
:10118000FFF7FAF8A168206850F8210040F001004C
:10119000A268216841F82200012084F84100002063
:1011A000D6E710B50446FFF761F910BD70477047E8
:1011B00010B504460CB9012010BD94F83D0028B9C3
:1011C000002084F83C00204600F025F8022084F836
:1011D0003D00211D206800F0CBFA012084F8460074
:1011E00000BF84F83E0001213F20015540200155F9
:1011F0004120015500BF00BF012084F84200432078
:101200000155442001554520015500BF012084F8B7
:101210003D000020D0E77047014691F83D000128CD
:1012200001D001207047022081F83D000868C068A5
:1012300040F001000B68D860164B0868984213D044
:10124000154B086898420FD00868B0F1804F0BD05A
:10125000124B0868984207D0114B0868984203D097
:10126000104B086898420CD10868806800F00702AB
:10127000062A0CD00868006840F001000B6818606E
:1012800005E00868006840F001000B681860002065
:10129000C8E70000002C0140003401400004004079
:1012A00000080040000C0040704770B504462068FC
:1012B000C5682068066906F00200022819D105F009
:1012C0000200022815D1401F216808610120207703
:1012D0002068806900F0030018B12046FFF7E4FFA2
:1012E00005E0204600F097F8204600F095F8002031
:1012F000207706F00400042819D105F00400042822
:1013000015D1C043216808610220207720688069D8
:1013100000F4407018B12046FFF7C6FF05E02046F4
:1013200000F079F8204600F077F80020207706F0EA
:101330000800082819D105F00800082815D1C04375
:1013400021680861042020772068C06900F003004C
:1013500018B12046FFF7A8FF05E0204600F05BF833
:10136000204600F059F80020207706F010001028E1
:1013700019D105F01000102815D1C043216808616B
:10138000082020772068C06900F4407018B120461A
:10139000FFF78AFF05E0204600F03DF8204600F008
:1013A0003BF80020207706F0010048B105F001006D
:1013B00030B16FF0010021680861204600F02EF87E
:1013C00006F08000802809D105F08000802805D132
:1013D000C043216808612046FFF7E8FE06F04000A0
:1013E000402809D105F04000402805D1C0432168BC
:1013F0000861204600F01EF806F02000202809D1E0
:1014000005F02000202805D1C0432168086120464E
:10141000FFF7CDFE70BD70477047000010B5044661
:1014200003492068884201D1FFF70AFA10BD000085
:1014300000140040704710B504460CB9012010BDDF
:10144000A06900B100E000BF94F8410028B9002075
:1014500084F84000204600F029F8242084F8410058
:101460002068C06820F400502168C860204600F061
:10147000D5F92068006920F490402168086120684F
:10148000406920F02A00216848612068C06840F463
:1014900000502168C86000206064202084F841006A
:1014A00084F842000020606300BFC8E710B586B032
:1014B0000446002002900390049005901A49206889
:1014C00088422ED100BF1948806940F480401749F6
:1014D00088610846806900F48040019000BF00BF29
:1014E00000BF0846806940F00400886108468069B2
:1014F00000F00400019000BF00BF481502900220D8
:1015000003900320059002A90948FEF7EDFF4FF470
:101510008060029000200390049002A90448FEF726
:10152000E3FF06B010BD000000380140001002408B
:101530000008014000BFFEE700B587B01C216846E7
:10154000FEF7B0FE4FF020401A4908601A48486084
:101550000020886000211748C160016110214161AD
:1015600000218161C161016241624FF48051816259
:101570000021C1620163416381630F2000900190EB
:10158000FF2002900F20039010200490112005905E
:1015900000200690002269460648FFF7CFFD08B1FB
:1015A000FEF7E7FE0548C06940F480600349C86162
:1015B00007B000BD58000020040100A00000014059
:1015C00000B585B00020019002900390049000BF08
:1015D0002948806940F010002749886108468069E1
:1015E00000F01000009000BF00BF00BF08468069F7
:1015F00040F0400088610846806900F0400000909B
:1016000000BF00BF00BF0846806940F0200088612D
:101610000846806900F02000009000BF00BF00BFB6
:101620000846806940F0040088610846806900F03F
:101630000400009000BF00BF00BF0846806940F072
:10164000080088610846806900F00800009000BF2B
:1016500000BF0122C0210948FFF7E6F8C020019031
:1016600011200290002003900320049001A9034858
:10167000FEF73AFF05B000BD00100240000C01402B
:1016800010B50B480B4908604FF4E1304860002169
:1016900008488160C16001610C21416100218161C4
:1016A000C161FFF7C8FE08B1FEF763FE10BD000080
:1016B00000380140A000002000BFFEE700BFFEE7A9
:1016C00008B508490968C9084FF47A72B1FBF2F10C
:1016D0004143009100BF00BF00994A1E00920029BB
:1016E000F9D108BD1400002010B500F0A5F90128BB
:1016F00001D000F087F910BD00B58FB0282105A8F2
:10170000FEF7D0FD14216846FEF7CCFD01200590C0
:1017100000040690002007900120099002200C9000
:10172000C1030D914FF4E0110E9105A8FFF7D4FA13
:1017300008B1FEF71EFE0F2000900220019000204D
:1017400002904FF4806003900020049002216846CC
:10175000FFF77CF908B1FEF70CFE0FB000BD704733
:1017600010B50248FFF7A1FD10BD0000E800002001
:1017700010B50268244B98420ED0244B98420BD0EF
:10178000B0F1804F08D0224B984205D0214B9842AF
:1017900002D0214B984203D122F070024B681A43C9
:1017A000194B98420ED0194B98420BD0B0F1804F94
:1017B00008D0174B984205D0164B984202D0164BD2
:1017C000984203D122F44072CB681A4322F080037E
:1017D0004C6943EA040202608B68C3620B6883624F
:1017E000094B984202D0094B984201D10B6903631F
:1017F00001234361036903F001031BB1036923F073
:101800000103036110BD0000002C014000340140C1
:101810000004004000080040000C004070B5044681
:101820002168096921F44051E2681143226811617D
:101830002269A1681143626941EA02052168C96809
:1018400041F20C62914329432268D16021684969C1
:1018500021F44071A2691143226851612D4A216827
:10186000914202D1FFF7F0F901E0FFF7DDF900EB5B
:10187000C00101EB001162689200B1FBF2F100EBD4
:10188000C00202EB001263689B00B2FBF3F2642318
:10189000B2FBF3F202EBC20303EB0212A1EB8201F3
:1018A000322202EB01116422B1FBF2F101F0F001EE
:1018B00000EBC00202EB001263689B00B2FBF3F284
:1018C0006423B2FBF3F201EB021200EBC00101EB67
:1018D000001163689B00B1FBF3F100EBC00303EB65
:1018E00000136668B600B3FBF6F36426B3FBF6F3A9
:1018F00003EBC30606EB0313A1EB8301322303EBD7
:1019000001116423B1FBF3F101F00F0111442268CE
:10191000916070BD0038014000BFFEE702480068DA
:10192000C0F30220704700000CED00E010B5002865
:1019300004DB0A07130E054A135406E00A07140EC7
:10194000034A00F00F031B1FD45410BD00E400E055
:1019500018ED00E0FEF780FFFFF7CEFEFFF730FE48
:10196000FFF78EFEFFF7E8FD00BFFEE709480068BD
:10197000006808B9012000E0002020B14FF0FF30DE
:101980000549086005E003480068C068006802492E
:10199000086070471C0000204800002014480068C0
:1019A00018B101201349086021E0002011490860A6
:1019B00000BF11480068B0FA80F0C0F11F0100BFFD
:1019C00001EB81020D4B03EB8200426852684260DA
:1019D00000F108024368934201D1C2684260426844
:1019E000D268074B1A6000BF00BF184600687047F6
:1019F000540000203C000020300000203001002076
:101A00001800002010B500BFBF2080F31188BFF37D
:101A10004F8FBFF36F8F00BF00F01EF818B14FF06B
:101A200080500449086000BF002080F3118800BF87
:101A300010BD000004ED00E00549096809B9012066
:101A400005E00449096809B9022000E00020704758
:101A500034000020540000202DE9F04100275B48AD
:101A6000006800287DD15A480068451C5848056028
:101A700095B900BF5748D0F80080574800685549CD
:101A800008605548C0F8008054480068401C53491D
:101A90000860FFF76BFF00BF5148006885427DD3A7
:101AA00000BF4C480068006808B9012000E0002031
:101AB00020B14FF0FF304A4908606EE045480068A9
:101AC000C068C4686668B54202D24548066064E0F2
:101AD00000BF6069D4E902128A60D4E902214A6039
:101AE000211D42688A4201D1E168416000226261A1
:101AF0000168491E016000BFA06AA0B100BFA06AD2
:101B0000D4E907128A60D4E907214A6004F1180178
:101B100042688A4201D1216A41600022A2620168C2
:101B2000491E016000BF00BF94F82C1001208840BE
:101B30002C49096808432B49086000BFE16A01EBA2
:101B40008101294A02EB81014868A0608268E26055
:101B5000211D826851608160E16A01EB8101224AA6
:101B600000E02BE002EB81026261E16A01EB81019E
:101B70001D4A52F82110491CE26A02EB82021A4BFC
:101B800043F8221000BF00BF1849E06A0968C96A1B
:101B9000884286D9012784E700E000BF1348006827
:101BA000C06A00EB8000104951F82000012800D9DC
:101BB00001270F48006800B1012704E00D480068C4
:101BC000401C0C4908603846BDE8F08154000020F4
:101BD0002C0000201C0000202000002040000020DD
:101BE00048000020300000203001002018000020B4
:101BF0003C00002038000020020304050607080905
:101C00000A0B0C0D0E0F1010010200000000000066
:101C10000000010203040607080900000000010299
:101C200003040000441C00080000002058000000CD
:101C30006C0100089C1C00085800002000080000EF
:101C40008801000800000000000000000000000003
:101C5000100000000100000000127A0000000000E7
:101C60000000000000000000000000000000000074
:101C70000000000000000000000000000000000064
:101C80000000000000000000000000000000000054
:0C1C900000000000040000000000000044
:0400000508000131BD
:00000001FF
